:020000040800F2
:1000000000000120E50100087902000881020008D3
:10001000890200089102000899020008000000000F
:10002000000000000000000000000000A102000825
:10003000A902000800000000B1020008B90200088F
:1000400071020008710200087102000871020008C4
:1000500071020008710200087102000871020008B4
:1000600071020008710200087102000871020008A4
:100070007102000871020008710200087102000894
:100080007102000871020008710200087102000884
:100090007102000871020008710200087102000874
:1000A0007102000871020008710200087102000864
:1000B0007102000871020008710200087102000854
:1000C0007102000871020008710200087102000844
:1000D0007102000871020008710200087102000834
:1000E0007102000871020008710200087102000824
:1000F0007102000871020008710200087102000814
:100100007102000871020008710200087102000803
:1001100071020008710200087102000871020008F3
:1001200071020008710200087102000871020008E3
:1001300000000000000000000000000000000000BF
:1001400000000000000000000000000000000000AF
:10015000000000000000000000000000000000009F
:10016000000000000000000000000000000000008F
:10017000000000000000000000000000000000007F
:10018000000000000000000000000000000000006F
:10019000000000000000000000000000000000005F
:1001A000000000000000000000000000000000004F
:1001B000000000000000000000000000000000003F
:1001C000000000000000000000000000000000002F
:1001D000000000000000000000000000000000001F
:1001E0005FF8E0F180B584B000AF0D4BBB600D4B04
:1001F0007B60BB683B6004E03B681A1D3A600022EC
:100200001A607A683B689A42F6D800F0A7FE00F0C0
:1002100079F9F86000F0D8FEF86800F019FA00BF2C
:10022000C40800204409002080B584B000AF0D4B05
:10023000FB600D4BBB600D4B7B60BB683B6007E018
:100240003B681A1D3A60FA68111DF96012681A605D
:100250007A683B689A42F3D800F0D4FE1037BD4666
:1002600080BD00BFA470000800000020C40800206A
:1002700080B400AFFEE700BF80B400AFFEE700BF70
:1002800080B400AFFEE700BF80B400AFFEE700BF60
:1002900080B400AFFEE700BF80B400AFFEE700BF50
:1002A00080B400AFFEE700BF80B400AFFEE700BF40
:1002B00080B400AFFEE700BF80B400AFFEE700BF30
:0402C0002902000807
:1002C80080B584B000AF0346FB71042318460121B2
:1002D80001F048F90223BB811023FB730323BB738E
:1002E800FA79064B53F8222007F10C0310461946F9
:1002F80000F03EFF1037BD4680BD00BF0000002063
:1003080080B483B000AF0346FB71FA79044B53F80D
:10031800223002221A610C37BD465DF8047B704713
:100328000000002080B483B000AF0346FB71FA7967
:10033800044B53F8223002225A610C37BD465DF84F
:10034800047B70470000002080B588B000AF78605B
:100358000120012101F006F97A68464B9A420CD136
:100368004FF48040012101F01BF90820012101F020
:10037800F9F84FF420433B810AE04FF48050012103
:1003880001F0F0F80420012101F0ECF8A0233B81F2
:100398001823FB720323BB727A68364B9A4209D141
:1003A80007F108033448194600F0E2FE4FF4804391
:1003B8003B8107E007F108033048194600F0D8FEF2
:1003C80040233B810423FB727A682A4B9A4206D168
:1003D80007F108032848194600F0CAFE05E007F1AE
:1003E80008032648194600F0C3FE0023BB814FF4DA
:1003F8008273FB8100233B8200237B820023BB8224
:100408004FF40073FB8208233B8300237B8307237D
:10041800BB8307F10C037868194601F0DFF8102355
:10042800FB720323BB727A68124B9A420ED14FF4C7
:1004380080533B8107F108030F48194600F098FEE6
:100448000D484FF4805100F04FFF0BE010233B8123
:1004580007F108030948194600F08AFE07481021E9
:1004680000F042FF7868012101F0FCF82037BD4612
:1004780080BD00BF00380040000C0140000801406A
:1004880080B586B000AF4FF48040012101F06AF8D2
:100498000820012101F066F80120012101F062F82D
:1004A8004023BB821823FB750323BB7507F1140394
:1004B8001048194600F05CFE0420012100F030FFCE
:1004C8004FF4E1337B6000233B8100237B810023D1
:1004D800BB8100233B820823FB813B1D064819464C
:1004E80001F0FCF80448012101F0B2F91837BD46C3
:1004F80080BD00BF000C014000380140B0B58CB091
:1005080000AF00F07BFDFFF7BBFF0020FFF7D8FE30
:10051800384801F035FA0F20202100F033F9002087
:10052800032100F031FC344800F0B6F9334800F0FC
:10053800C9F9334801F024FA0023FB850023BB8561
:10054800FB8D002B4BD12F4A2F4B14461D460FCD48
:100558000FC495E80F0007C423702C4801F010FA67
:100568000023BB85274800F0A7FA0020FFF7C8FE44
:1005780000F044FB034687F82B3097F82B30FF2B0D
:10058800F6D00020FFF7CEFE00F068FA00BF00F0BA
:10059800F1FA0346002B05D1BB8D5A1CBA85B3F579
:1005A8007A7FF4D3BB8D1A48194601F0A5F919488A
:1005B80000F0BCFA97F82B30012B03D1164801F054
:1005C8009BF90BE097F82B30002B03D1134801F06F
:1005D80093F903E0124801F08FF90AE009E0FB8D76
:1005E8000133FB85FB8DB3F5FA6F02D10023FB8540
:1005F800A6E7A5E7AC6E0008040000200C00002068
:10060800BC6E00081C090020C86E0008E86E0008CF
:10061800F46E0008FC080020FC6E0008046F000857
:100628000C6F000880B483B000AF78603960054B68
:1006380016221A604FF0FF3318460C37BD465DF896
:10064800047B70474009002080B582B000AF786015
:1006580078684FF0FF31FFF7E5FFFEE780B586B019
:1006680000AFF860B9607A6000237B6114E000BFD6
:100678000E48802101F01EF90346002BF8D07B6953
:10068800BA6813441B785BB29BB20848194601F05C
:10069800FFF87B6901337B617A697B689A42E6DB04
:1006A8007B6818461837BD4680BD00BF003801403A
:1006B80080B483B000AF78604FF0FF3318460C3732
:1006C800BD465DF8047B704780B483B000AF7860A6
:1006D80039603B684FF400525A60002318460C37C3
:1006E800BD465DF8047B704780B483B000AF786086
:1006F800012318460C37BD465DF8047B704700BFE0
:1007080080B485B000AFF860B9607A6000231846FD
:100718001437BD465DF8047B704700BF80B485B0D0
:1007280000AFF860B9607A60002318461437BD46F8
:100738005DF8047B704700BF80B582B000AF04202D
:10074800012100F00FFF1023FB710323BB7110235D
:10075800BB803B1D0A48194600F00AFD0423BB80F4
:100768003B1D0748194600F003FD0548042100F029
:10077800C9FD0348102100F0B7FD0837BD4680BD0C
:100788000008014080B582B000AF02460B46FA71FE
:10079800BB71FFF7D1FF3D4800F036FBBB79202B3A
:1007A80001D92023BB713A4BFA795A70384BBA7980
:1007B8001A70374B03229A70354B0022DA7000F01A
:1007C80037FA334B5B78184600F0C4FA304B1B7885
:1007D8001120194600F0DCF82D4B1B781220194621
:1007E80000F0D6F82A4B1B781320194600F0D0F8F1
:1007F800274B1B781420194600F0CAF8244B1B78A5
:100808001520194600F0C4F8214B1B78162019460C
:1008180000F0BEF81E4BDA781D4B9B78104619463F
:1008280000F0B2FA0020082100F0B2F801203F21C0
:1008380000F0AEF802203F2100F0AAF804204F2172
:1008480000F0A6F81C20002100F0A2F811481021A1
:1008580000F058FD0D48E12100F0E0FA0D481021A4
:1008680000F042FD0B48102100F04CFD0748E22142
:1008780000F0D4FA0748102100F036FD00F0EEF839
:10088800012318460837BD4680BD00BF003001402F
:100898003C0900200008014080B582B000AF7860B4
:1008A8000748042100F02EFD0B207968052200F08E
:1008B80095F80348042100F017FD0837BD4680BDB0
:1008C8000008014080B582B000AF78600A207968DE
:1008D800052200F083F810207968052200F07EF8E0
:1008E8000837BD4680BD00BF80B584B000AF134651
:1008F8000246FA710A46BA717B71FB79184600F014
:1009080023F80346FB737B79002B09D0BB790122BE
:1009180002FA03F3DAB2FB7B1343DBB2FB730AE0A0
:10092800BB79012202FA03F3DBB2DB43DAB2FB7BC9
:100938001340DBB2FB73FA79FB7B1046194600F0D3
:1009480027F81037BD4680BD80B584B000AF034698
:10095800FB710D48102100F0D5FCFB7903F01F0353
:10096800DBB20A48194600F059FA0848FF2100F09E
:1009780055FA0346FB730448102100F0B5FCFB7BD5
:1009880018461037BD4680BD0008014000300140C0
:1009980080B582B000AF02460B46FA71BB710D48B4
:1009A800102100F0AFFCFB7903F01F03DBB243F02A
:1009B8002003DBB20848194600F030FABB79064834
:1009C800194600F02BFA0348102100F08DFC083777
:1009D800BD4680BD000801400030014080B582B0AE
:1009E80000AF396013460246FA71BB710E481021F8
:1009F80000F088FCFB7903F01F03DBB243F020030F
:100A0800DBB20A48194600F009FABB799BB20748DD
:100A180039681A4600F04EFA0348102100F064FCC9
:100A28000837BD4680BD00BF0008014000300140C6
:100A380080B500AF072004210122FFF755FF0720EA
:100A480005210122FFF750FF072006210122FFF7A9
:100A58004BFF00200A21FFF79BFF80BD80B500AF48
:100A68001348102100F04EFC1248E22100F0D6F99C
:100A78000F48102100F038FC072004210122FFF75D
:100A880033FF072005210122FFF72EFF072006214B
:100A98000122FFF729FF0648042100F033FC00205B
:100AA8000B21FFF775FF0248042100F01DFC80BDF3
:100AB800000801400030014080B584B000AF786084
:100AC800174B1B78FB731748042100F01BFCFFF73A
:100AD800AFFF1448102100F015FC1348E12100F085
:100AE8009DF91048102100F0FFFB0E48102100F07E
:100AF80009FC0D48A02100F091F9FB7B9BB20A4844
:100B080079681A4600F0D6F90648102100F0ECFB87
:100B18000448042100F0E8FB1037BD4680BD00BF43
:100B28003C090020000801400030014080B582B037
:100B380000AF78600C48102100F0E4FB0B486121FD
:100B480000F06CF90A4B1B78084879687A6800F05D
:100B58008FF90548102100F0C7FB07204021FFF757
:100B680017FF0837BD4680BD00080140003001402E
:100B78003C09002080B582B000AF00F025F803469C
:100B8800FB71FB7903F04003002B01D0012307E040
:100B980000F00AF80346002B14BF00230123DBB240
:100BA80018460837BD4680BD80B582B000AF172013
:100BB800FFF7CAFE0346FB71FB7903F00103DBB2C2
:100BC80018460837BD4680BD80B582B000AF0948D9
:100BD800102100F097FB0848FF2100F01FF9034699
:100BE800FB710448102100F07FFBFB791846083799
:100BF800BD4680BD000801400030014080B582B08C
:100C080000AFFFF7E1FF0346FB71FB7903F0200318
:100C1800002B01D0012307E0FB7903F01003002B20
:100C280001D0002300E0FF2318460837BD4680BDE9
:100C380080B582B000AF00200821FFF7A9FE01208F
:100C48003F21FFF7A5FE02200321FFF7A1FE0320A5
:100C58000321FFF79DFE04200321FFF799FE0520DD
:100C68000221FFF795FE06200E21FFF791FE0720CF
:100C78000E21FFF78DFE08200021FFF789FE0920CD
:100C88000021FFF785FEE7233B70E7237B70E7230E
:100C9800BB70E723FB70E7233B713B460A201946EC
:100CA8000522FFF79BFEC2233B70C2237B70C22341
:100CB800BB70C223FB70C2233B713B460B20194615
:100CC8000522FFF78BFE0C20C321FFF761FE0D20E4
:100CD800C421FFF75DFE0E20C521FFF759FE0F2046
:100CE800C621FFF755FEE7233B70E7237B70E72318
:100CF800BB70E723FB70E7233B713B461020194686
:100D08000522FFF76BFE11200021FFF741FE12209C
:100D18000021FFF73DFE13200021FFF739FE1420C4
:100D28000021FFF735FE15200021FFF731FE1620C0
:100D38000021FFF72DFE17201121FFF729FE1C20A7
:100D48000021FFF725FE1D200021FFF721FE0837AF
:100D5800BD4680BD80B582B000AF0346FB71FB790C
:100D68007D2B0CD8074B5B78FA799A4207D0054B54
:100D7800FA795A70FB7905201946FFF709FE0837FA
:100D8800BD4680BD3C09002080B584B000AF024656
:100D98000B46FA71BB710023FB731A4BFA79DA70B0
:100DA800184BBA799A70FB79002B04D1FB7B43F07E
:100DB8000803FB7306E0FB79022B03D1FB7B43F0AE
:100DC8002003FB73BB79032B04D1FB7B43F00603A1
:100DD800FB730EE0BB79022B04D1FB7B43F00403C9
:100DE800FB7306E0BB79012B03D1FB7B43F00203C5
:100DF800FB73FB7B06201946FFF7CAFD1037BD467B
:100E080080BD00BF3C09002080B582B000AF78608B
:100E18007868FFF799FA0837BD4680BD80B582B07B
:100E280000AF78600B46FB70FB789AB27B689A81BA
:100E380000BF7868022100F035FC0346002BF8D08B
:100E480000BF7868012100F02DFC0346002BF8D084
:100E580000BF7868802100F025FC0346002BF8D1FC
:100E68007B689B899BB2DBB218460837BD4680BDBC
:100E780090B587B000AFF860B9607A607B800023D6
:100E8800FB750FE0FB7D7A68D418FB7DBA681344C4
:100E98001B78F8681946FFF7C1FF03462370FB7DEE
:100EA8000133FB75FB7D9BB27A889A42EAD81C37DE
:100EB800BD4690BD80B586B000AFF860B9601346F6
:100EC800FB800023FB820AE0FB8ABA6813441B7884
:100ED800F8681946FFF7A2FFFB8A0133FB82FA8AFA
:100EE800FB889A42F0D31837BD4680BD80B584B0E0
:100EF80000AF7860144B1B68002B02D1124B134AC9
:100F08001A60114B1B68FB607B68033323F00303F3
:100F18007B600D4B1A687B681A440D4B9A4207D9BF
:100F280000F0E4FC03460C221A604FF0FF3306E0A1
:100F3800054B1A687B681A44034B1A60FB6818460D
:100F48001037BD4680BD00BFC408002044090020FA
:100F580000FC002080B582B000AF154A154BD31AAB
:100F68009B103B6000237B6007E0124B7A6853F8C4
:100F7800223098477B6801337B607A683B689A42E5
:100F8800F3D30D4A0D4BD31A9B103B6000237B60B3
:100F980007E00A4B7A6853F8223098477B68013398
:100FA8007B607A683B689A42F3D30837BD4680BDB8
:100FB800C4020008C0020008C4020008C4020008F5
:100FC80080B582B000AF0B4A0B4BD31A9B103B6025
:100FD8003B687B6008E07B685A1E074B53F8223059
:100FE80098477B68013B7B607B68002BF3D108370F
:100FF800BD4680BDC4020008C402000880B500AF29
:10100800154B154A126842F001021A60124A124B37
:101018005968124B0B4053600F4A0F4B1B6823F063
:10102800847323F4803313600B4B0B4A126822F449
:1010380080221A60084B084A526822F4FE025A605D
:10104800054B4FF41F029A6000F00CF8044B4FF068
:1010580000629A6080BD00BF001002400000FFF8E7
:1010680000ED00E080B500AF00F002F880BD00BFE1
:1010780080B483B000AF00237B6000233B603A4B11
:10108800394A126842F480321A60374B1B6803F4FD
:1010980000333B607B6801337B603B68002B03D1E6
:1010A8007B68B3F5A06FF0D12F4B1B6803F40033B6
:1010B800002B02D001233B6001E000233B603B682A
:1010C800012B4BD1294B294A126842F010021A60B1
:1010D800264B264A126822F003021A60234B234A41
:1010E800126842F002021A601F4B1F4A52685A6087
:1010F8001D4B1D4A52685A601B4B1B4A526842F4EA
:1011080080625A60184B184A526822F47C125A605E
:10111800154B154A526842F4E8125A60124B124AAB
:10112800126842F080721A6000BF0F4B1B6803F010
:101138000073002BF9D00C4B0B4A526822F00302C3
:101148005A60094B084A526842F002025A6000BFCE
:10115800054B5B6803F00C03082BF9D10C37BD462F
:101168005DF8047B704700BF001002400020024079
:1011780080B489B000AF786039600023FB61002338
:101188003B610023BB610023FB6000237B610023DC
:10119800BB603B68DB7803F00F03FB613B68DB78DF
:1011A80003F01003002B04D03B689B78FA691343C3
:1011B800FB613B681B88DBB2002B44D07B681B6853
:1011C8007B610023BB6138E0BB69012202FA03F3AB
:1011D800FB603B681B881A46FB6813403B613A6911
:1011E800FB689A4226D1BB699B00FB60FB680F2213
:1011F80002FA03F3BB60BB68DB437A6913407B6187
:10120800FB68FA6902FA03F37A6913437B613B6866
:10121800DB78282B05D1BB6901229A407B685A618B
:1012280008E03B68DB78482B04D1BB6901229A406F
:101238007B681A61BB690133BB61BB69072BC3D9E2
:101248007B687A691A603B681B88FF2B46D97B68E4
:101258005B687B610023BB613AE0BB69083301220C
:1012680002FA03F3FB603B681B881A46FB681340CD
:101278003B613A69FB689A4227D1BB699B00FB60D6
:10128800FB680F2202FA03F3BB60BB68DB437A6991
:1012980013407B61FB68FA6902FA03F37A69134326
:1012A8007B613B68DB78282B05D1BB6908330122B9
:1012B8009A407B685A613B68DB78482B05D1BB694B
:1012C800083301229A407B681A61BB690133BB610C
:1012D800BB69072BC1D97B687A695A602437BD4638
:1012E8005DF8047B704700BF80B483B000AF7860BE
:1012F8000B467B807A887B681A610C37BD465DF89F
:10130800047B704780B483B000AF78600B467B8065
:101318007A887B685A610C37BD465DF8047B704754
:1013280080B487B000AF78600B46FB7000233B6148
:101338000023FB6000237B610023BB607B68002BDC
:1013480003DA2E4BDB697B6102E02C4B5B687B6127
:101358007B6803F470231B0CBB607B689BB23B610A
:101368007B6803F44013B3F5401F0AD17B6923F06F
:1013780070637B61214B214A526822F070625A6087
:1013880021E07B6803F48013002B0ED0BB68032296
:1013980002FA03F3FB60FB68DB437A6913407B6165
:1013A8007B6943F070637B610DE07B685B0D1B011B
:1013B8003A6902FA03F3DB437A6913407B617B697C
:1013C80043F070637B61FB78002B08D07B685B0D72
:1013D8001B013A6902FA03F37A6913437B617B685C
:1013E800002B03DA054B7A69DA6102E0034B7A696C
:1013F8005A601C37BD465DF8047B70470000014009
:1014080080B487B000AF786000237B6100233B6124
:101418000023FB600023BB604D4B5B6803F00C03AB
:101428007B617B69042B07D0082B09D0002B34D1B2
:101438007B68484A1A6034E07B68464A1A6030E0A4
:10144800434B5B6803F470133B61414B5B6803F4E7
:101458008033FB603B699B0C02333B61FB68002BCC
:1014680006D13B693C4A02FB03F27B681A6013E031
:10147800374B5B6803F40033002B06D03B69364AD0
:1014880002FB03F27B681A6006E03B69314A02FB03
:1014980003F27B681A6004E003E07B682D4A1A6057
:1014A80000BF2B4B5B6803F0F0037B617B691B0972
:1014B8007B612A4A7B6913441B78DBB2BB607B687B
:1014C8001A68BB68DA407B685A60214B5B6803F492
:1014D800E0637B617B691B0A7B61204A7B6913445B
:1014E8001B78DBB2BB607B685A68BB68DA407B68F4
:1014F8009A60174B5B6803F460537B617B69DB0A76
:101508007B61164A7B6913441B78DBB2BB607B683E
:101518005A68BB68DA407B68DA600D4B5B6803F495
:1015280040437B617B699B0B7B610D4A7B6913445C
:101538001B78DBB2BB607B68DA68BB68B2FBF3F28E
:101548007B681A611C37BD465DF8047B704700BF95
:101558000010024000127A0000093D00140000202B
:101568002400002080B483B000AF78600B46FB7085
:10157800FB78002B06D0094B084A91697A680A4320
:101588009A6106E0054B054A91697A68D2430A4098
:101598009A610C37BD465DF8047B70470010024025
:1015A80080B483B000AF78600B46FB70FB78002BEB
:1015B80006D0094B084AD1697A680A43DA6106E01D
:1015C800054B054AD1697A68D2430A40DA610C377B
:1015D800BD465DF8047B70470010024080B485B0BA
:1015E80000AF786039600023FB817B681B88FB8132
:1015F800FB8903F44153FB813B681A883B685B888D
:1016080013439AB23B689B8813439AB23B68DB88C2
:1016180013439AB23B681B8913439AB23B685B89B0
:1016280013439AB23B689B8913439AB23B68DB89A0
:1016380013439AB2FB891343FB817B68FA891A80AA
:101648007B689B8B9BB223F400639AB27B689A8376
:101658003B681A8A7B681A821437BD465DF8047B9A
:10166800704700BF80B483B000AF78600B46FB7052
:10167800FB78002B08D07B681B889BB243F04003A3
:101688009AB27B681A8007E07B681B889BB223F0BC
:1016980040039AB27B681A800C37BD465DF8047B1C
:1016A800704700BF80B485B000AF78600B467B8080
:1016B8000023FB737B681B899AB27B8813409BB21B
:1016C800002B02D00123FB7301E00023FB73FB7B9B
:1016D80018461437BD465DF8047B704780B58CB05A
:1016E80000AF786039600023FB620023BB620023EF
:1016F8007B6200233B620023FB617B68FB617B68A4
:101708001B8A9BB2FB62FA6A4CF6FF731340FB62BA
:101718003B68DB88FA6A1343FB62FB6A9AB27B6810
:101728001A827B689B899BB2FB62FA6A4EF6F313B6
:101738001340FB623B689A883B681B8913439AB243
:101748003B685B8913439BB2FA6A1343FB62FB6AEB
:101758009AB27B689A817B689B8A9BB2FB62FA6A21
:101768004FF6FF431340FB623B689B89FA6A1343B9
:10177800FB62FB6A9AB27B689A8207F108031846F3
:10178800FFF73EFEFA69304B9A4202D17B69BB6291
:1017980001E03B69BB627B689B899BB29BB21BB231
:1017A800002B0CDABA6A13469B0013449A001A44B9
:1017B8003B681B685B00B2FBF3F37B620BE0BA6A21
:1017C80013469B0013449A001A443B681B689B000D
:1017D800B2FBF3F37B627A6A1C4BA3FB02135B092F
:1017E8001B01FB62FB6A1B09642202FB03F37A6A92
:1017F800D31A3B627B689B899BB29BB21BB2002BBE
:101808000DDA3B6ADB0003F13202104BA3FB021333
:101818005B0903F00703FA6A1343FB620CE03B6AB7
:101828001B0103F13202094BA3FB02135B0903F00E
:101838000F03FA6A1343FB62FB6A9AB27B681A8148
:101848003037BD4680BD00BF003801401F85EB51D1
:1018580080B483B000AF78600B46FB70FB78002B38
:1018680008D07B689B899BB243F400539AB27B688B
:101878009A8107E07B689B899BB223F400539AB254
:101888007B689A810C37BD465DF8047B704700BFC2
:1018980080B483B000AF78600B467B807B88C3F34D
:1018A80008039AB27B689A800C37BD465DF8047BC2
:1018B800704700BF80B485B000AF78600B467B806E
:1018C8000023FB737B681B889AB27B8813409BB20A
:1018D800002B02D00123FB7301E00023FB73FB7B89
:1018E80018461437BD465DF8047B7047014B1868ED
:1018F800704700BF500400200FB410B5074B82B0EA
:1019080004AC54F8042B186823468168019400F04D
:101918006FF802B0BDE8104004B0704750040020D2
:10192800F0B5044689B008460D4600F031F8A368C2
:1019380002219A89DFF844E000F1010C012704AE86
:101948000291910404950590CDF80CC0CDF818E0EB
:101958000797019606D4596E42F4005221F40051BB
:101968009A8159662046194601AA02F081FD00288D
:101978000CBF0A204FF0FF3009B0F0BD1C6F000803
:10198800024B01461868FFF7CBBF00BF5004002088
:1019980020F0030110F00300C0F1000051F8043BEF
:1019A80000F1040C4FEACC0C6FF000021CBF22FAC5
:1019B8000CF213434FF0010C4CEA0C2C4CEA0C4C83
:1019C800A3EB0C0222EA030212EACC1204BF51F87C
:1019D800043B0430F4D013F0FF0F1FBF013013F4A1
:1019E8007F4F013013F47F0F18BF0130704700BFDD
:1019F8002DE9F04FC9B01C4689460A920D9002F0B5
:101A0800EFFE00680F941590FFF7C2FF0D9D189028
:101A18001DB1AB6B002B00F00981B9F80C2093B213
:101A28009F040AD4D9F8641042F4005321F40051F9
:101A3800A9F80C30C9F864109BB21E0740F1C080A9
:101A4800D9F81020002A00F0BB8003F01A030A2BF3
:101A580000F0C28038ACA44608942B9400250024DA
:101A6800CDE91645002311932D932C931A931993BE
:101A7800109366460A9D2B78002B00F0DB80252BFF
:101A880000F0D8806A1C02E0252B00F08B801378C8
:101A980014460132002BF7D10A98251A7DB12C9BE8
:101AA8002D9A01330A982A44072B86E821002D92A3
:101AB8002C9300F3A48008361099294410912378B8
:101AC800002B00F0A4800023651C94F801804FF0DF
:101AD800FF341A468DF88F300E9309930A950B94AC
:101AE8002B460133A8F12001582900F2F483DFE8DE
:101AF80011F03802F203F2030303F203F203F203D4
:101B0800F203F203F2033F023402F20360003503EA
:101B1800F20376037D037D037D037D037D037D034F
:101B28007D037D037D03F203F203F203F203F20364
:101B3800F203F203F203F203F20352039D03F203EA
:101B48009D03F203F203F203F2038E03F203F2039E
:101B5800D003F203F203F203F203F203A302F20347
:101B6800F203C302F203F203F203F203F203F203F5
:101B7800F203F203F203F2030A031C039D039D031D
:101B88009D03D9021C03F203F203E202F203EE0200
:101B98000A021C024B02F2035402F203A300F203EE
:101BA800F2037B020A99651A78E70E9C0F9164424A
:101BB8000E94099D45F00405099593F8008090E777
:101BC8000D98494601F0E4F9A0B9B9F80C3003F0D2
:101BD8001A030A2B7FF43EAFB9F90E30002BFFF63B
:101BE80039AF0D9849460A9A234601F093F949B04E
:101BF800BDE8F08F4FF0FF3049B0BDE8F08F0D9889
:101C080049462BAA04F012F840B938AE54E72D9B88
:101C180023B10D9849462BAA04F008F8B9F80C30FE
:101C28005B06E7D4109849B0BDE8F08F284602F06B
:101C380087FAF2E60A9C42E7099C0A93A20640F159
:101C480006820F9DEB1D23F0070303F1080CD3E96F
:101C58000045CDF83CC001234FF0000A8DF88FA055
:101C68000B99002905DBDDF824C02CF0800CCDF899
:101C780024C054EA050040F047830B99002940F03E
:101C88004383002B40F0B984DDF824C01CF0010F19
:101C980000F0B38448AF3023089D07F8413DEC1BA2
:101CA800DDF82CC000256445A8BFA446CDF830C097
:101CB8001495BAF1000F02D00C9D01350C95099BC3
:101CC80013F00203129302D00C9D02350C95DDF837
:101CD80024C01CF0840CCDF84CC040F012830E9D3B
:101CE800DDF830C0CCEB050BBBF1000F40F30983E6
:101CF800BBF1100F2D992C9ADFF828A527DD1B972B
:101D080010255746A2460D9C06E0ABF1100BBBF11F
:101D1800100F06F1080617DD01321031072A2D9140
:101D28002C9237607560F0DD204649462BAA03F0F7
:101D38007DFF00287FF472AFABF1100BBBF1100FE1
:101D48002D992C9A38AEE7DC5446BA461B9F0132CF
:101D58000BEB010C072ACDF8B4C02C9286E8000CD6
:101D680000F39A849DF88FA00836BAF1000F0FD0BF
:101D78002C9B0CF1010C01330DF18F010122072B73
:101D8800CDF8B4C02C9386E8060000F31C8408360E
:101D9800129B73B12C9B0CF1020C013324A9022273
:101DA800072BCDF8B4C02C9386E8060000F31884FE
:101DB8000836139D802D00F048830B9A151B002DC3
:101DC8003DDD102D2C9BDFF860A42CDD51460B94D3
:101DD800AA464FF0100B62460D9C0D4606E0AAF18C
:101DE800100ABAF1100F06F1080617DD0133103298
:101DF800072B2D922C9386E82008F0DD20464946D3
:101E08002BAA03F013FF00287FF408AFAAF1100AE9
:101E1800BAF1100F2D9A2C9B38AEE7DC94460B9C38
:101E28002A46554692460133AC44072BCDF8B4C038
:101E38002C93C6F800A0756000F3B9830836099D95
:101E4800EB0500F1A2822C9BA4440133072BCDF8AB
:101E5800B4C0376074602C9300F393830836099CF0
:101E6800620740D50E9D0C982C1A002C3BDD102CD7
:101E78002C9BDFF8B0A322DD10256246DDF8348004
:101E8800574604E0103C102C06F1080615DD013316
:101E98001032072B2D922C9337607560F2DD404687
:101EA80049462BAA03F0C2FE00287FF4B7AE103CC7
:101EB800102C2D9A2C9B38AEE9DC9446BA46013397
:101EC800A444072BCDF8B4C02C93C6F800A07460C6
:101ED80009DD0D9849462BAA03F0A8FE00287FF4D7
:101EE8009DAEDDF8B4C0109C0C980E9DA842ACBF06
:101EF800241864191094BCF1000F40F04E8300239D
:101F08002C9338AEB6E5DDF824C00A931CF0200304
:101F180000F0CA810F9CE31D23F0070303F10805B5
:101F28000F95D3E90045002396E6DDF824C00F9D00
:101F38000A930F9BB94804351C684FF07808302382
:101F48004CF0020C0F958DF89030CDF824C0002588
:101F58008DF891801A9002237EE693F800802B2258
:101F6800BFE593F80080002A7FF4BBAD2022B8E5D6
:101F78000F9C0F9D2468291D002C0E94FFF615AEAA
:101F88000F9193F80080ACE5DDF824C04CF0200CEC
:101F9800CDF824C093F80080A3E50F9C4FF0000A09
:101FA80027680A938DF88FA0251D002F00F05C8606
:101FB8000B9C3846002CC0F207865146224602F098
:101FC8001FFF002800F09C860B9CC01BA042B8BFD6
:101FD80004460F9524EAE475CDF82CA0CDF850A05E
:101FE8000C959DF88FA064E6099D8C4CAF060A936A
:101FF8001A948DF88F2047D5DDF83CC00CF1070303
:1020080023F0070303F108040F94D3E90045DDF832
:1020180024C01CF0010F00F0F48254EA050000F01F
:10202800F08230234CF0020C8DF890308DF89180BE
:10203800CDF824C002230FE6DDF824C00A934CF043
:10204800100CCDF824C0099CA2063FF5FAAD099CF6
:10205800E30600F13083DDF824C01CF0400F00F0E7
:102068002A83DDF83CC00025BCF800400CF1040CC4
:102078000123CDF83CC0EFE5099D694CAF060A93F2
:102088008DF88F201A94B7D4099DED0640F1C984C4
:10209800DDF83CC00025DCF800400CF1040CCDF85C
:1020A8003CC0B4E7DDF824C04CF0400CCDF824C0A7
:1020B80093F8008015E593F800801946B8F16C0F85
:1020C80000F06D85099D45F01005099509E5DDF8D5
:1020D80024C00A931CF0200F8DF88F2000F0B084E4
:1020E8000F9C2168109CE5172B460F9D224604354E
:1020F8000F95C1E90023BDE4099D45F00105099547
:1021080093F80080EDE40A930F9B0F9D1A68012451
:10211800002304359A460C948DF8B8200F958DF855
:102128008F300B9314932EAFC9E5099C0A93A5062B
:102138008DF88F203BD50F9DE91D21F00701D1E9CE
:10214800002308310F9114461D46002A73F1000C34
:10215800C0F2CA839DF88FA0012381E593F800801F
:10216800581CB8F12A0F00F0AE86A8F130010929F1
:1021780098BF002300F20C8610F8018B03EB830351
:1021880001EB4303A8F130010929F5D943EAE373C8
:102198000B930346A6E4DDF824C00A934CF0100C18
:1021A800CDF824C0099C8DF88F20A506C3D4DDF88E
:1021B80024C01CF0100F40F0B082DDF824C01CF0E1
:1021C800400F00F0AA82DDF83CC0BCF900400CF1D9
:1021D800040CE51722462B46CDF83CC0B5E7099D0F
:1021E80045F08005099593F800807AE40024A8F169
:1021F80030010E94204613F8018B00EB800001EBB0
:102208004000A8F130010929F5D90E906AE4099D2A
:1022180045F00805099593F8008062E4546F0008BA
:10222800406F0008746F0008206F00080F9D0A9324
:10223800EB1D23F0070303F1080C8DF88F20CDF870
:102248003CC0D3E90045CDE91645DDE9160103F0A8
:1022580035FC0128DDE9160140F0508300220023F7
:1022680004F0F0FA002840F031859DF88FA003258E
:102278000C95099D9E4F25F080059E4B00240995DD
:1022880000250B94B8F1470FD8BF1F4603241495B7
:102298000FE5099D0A9345F010050995DDF824C05E
:1022A8001CF020037FF436AEDDF824C01CF01002C9
:1022B80040F03B82DDF824C01CF0400300F035827A
:1022C800DDF83CC01346BCF800400CF1040C0025B6
:1022D800CDF83CC0C0E40A938DF88F20B8F1000F08
:1022E8003FF495AC00234FF0010C9A46CDF830C06E
:1022F8008DF8B8808DF88F300B93149364462EAF09
:10230800DDE4DDF8B4C030E5012B00F0E380022BFA
:102318000DF1DF0318D1DDF868C0194604F00F008D
:1023280022091CF8000042EA05722B09087052EADB
:1023380003000F4614461D4601F1FF31EED1089DFA
:10234800CDE91E23EC1BABE4E00840EA457004F03D
:102358000702E908303250EA010C1F461A70044699
:102368000D4603F1FF33EFD1099CCDE91C01E007CD
:10237800394640F1B880302A00F0B580089D1F46E4
:102388003023EC1B01F8013C8AE4B8F1650F40F3F7
:10239800B780DDE9160100220023CDF81CC004F047
:1023A80047FADDF81CC0002800F02E812C9B52490A
:1023B80001330CF1010C0122072BCDF8B4C02C938A
:1023C80086E8060000F361830836259B119CA3422A
:1023D80003DB099DEF077FF542AD2C9B189C013369
:1023E800159DA444072BCDF8B4C0356074602C93B8
:1023F80000F3DE830836119D6C1E002C7FF72FAD8D
:10240800102C2C9BDFF8F4A040F39881102562462D
:10241800DDF83480574604E00836103C102C40F3B1
:102428008B8101331032072B2D922C933760756006
:10243800F2DD404649462BAA03F0F8FB00287FF45A
:10244800EDAB2D9A2C9B38AEE7E70E980C99451A00
:10245800002D7FF7B2AC102D2C9BDFF8A0A02CDD4F
:1024680051461294AA464FF0100B62460D9C0D4639
:1024780006E0AAF1100ABAF1100F06F1080617DDF6
:1024880001331032072B2D922C9386E82008F0DDBB
:10249800204649462BAA03F0C9FB00287FF4BEABAF
:1024A800AAF1100ABAF1100F2D9A2C9B38AEE7DC6E
:1024B8009446129C2A46554692460133AC44072B53
:1024C800CDF8B4C02C93C6F800A0756000F3FF8166
:1024D800083672E4002D08BF0A2C80F03B813034A6
:1024E80048AF07F8414D089DEC1BFFF7D9BB00BF6B
:1024F800346F0008306F0008706F0008206F000804
:10250800119C012C2C9C40F3A48101340CF1010591
:102518000123072C2D952C943760736000F3B48148
:1025280008361898013415990544072C2D952C94D4
:102538003160706000F3B4810836DDE916010022CD
:10254800002304F075F9002840F0BD80119A013489
:10255800531E01371D44072C2C942D95376073604A
:1025680000F386810836DDF864C00134AC44199D57
:1025780027AB072CCDF8B4C02C9486E828007FF749
:102588006DAC0D9849462BAA03F050FB00287FF448
:1025980045ABDDF8B4C038AE61E40D9849462BAAC6
:1025A80003F044FB00283FF4AAACFFF737BB0D98B3
:1025B80049462BAA03F03AFB00287FF42FABDDF83D
:1025C800B4C038AE3BE40D9849462BAA03F02EFB65
:1025D80000287FF423ABDDF8B4C038AEFFF7D8BBD2
:1025E8000D9849462BAA03F021FB00287FF416AB6F
:1025F800DDF8B4C038AEFFF7DCBB0B9C38AFFFF793
:102608004FBB0223FFF728BB259B002B40F34982D1
:10261800119C149DDDF84480AC42A8BF2C46002CC8
:10262800B8440BDD2C9BA4440133072BCDF8B4C070
:10263800376074602C9300F3F0820836149D24EA06
:10264800E4742C1B002C40F3AD80102C2C9BDFF87D
:10265800D8A640F30D8251461025BA466246DDF8E9
:1026680034B00F4604E00836103C102C40F3FC81CF
:1026780001331032072B2D922C9337607560F2DDF1
:10268800584649462BAA03F0D1FA00287FF4C6AA77
:102698002D9A2C9B38AEE7E70D9849462BAA03F0F4
:1026A800C5FA00287FF4BAAA9DF88FA0DDF8B4C057
:1026B80038AEFFF75ABB0F9D01232C6804350F95E0
:1026C8000025FFF7C9BA119B5F1E002F7FF74BAF9C
:1026D800102FDFF854A640F3EF804FF01008DDF814
:1026E80034B004E00836103F102F40F3E580013481
:1026F8001035072C2D952C94C6F800A0C6F8048038
:10270800F0DD584649462BAA03F090FA00287FF4DA
:1027180085AA2D9D2C9C38AEE5E70F9D2C680435C5
:102728000F95E51722462B460FE50F9D2C680435BB
:102738000F950025FFF790BA9446BA460133A44492
:10274800072BCDF8B4C02C93C6F800A074607FF7AF
:1027580085AB16E70DF1DF0B204629460A22002338
:1027680004F0C0F830328BF80020204629460A22AF
:10277800002304F0B7F804460D4654EA050C5F46FA
:102788000BF1FF3BE8D1089DEC1BFFF789BA0D98C8
:1027980049462BAA03F04AFA00287FF43FAADDF83D
:1027A800B4C038AE149D259C2F44119DAC4240DB2B
:1027B800099DE8073DD41198C7EB0805041BAC42F6
:1027C800B8BF2546002D0BDD2C9BAC440133072BED
:1027D800CDF8B4C0376075602C9300F35482083686
:1027E80025EAE575641B002C7FF739AB102C2C9B70
:1027F800DFF834A5A2DD10256246DDF8348057469F
:1028080003E00836103C102C96DD01331032072BFC
:102818002D922C9337607560F3DD404649462BAA0C
:1028280003F004FA00287FF4F9A92D9A2C9B38AEFE
:10283800E8E7189D2C9BAC44159D01333560189D25
:10284800072BCDF8B4C075602C9300F300820836CE
:10285800B1E7099DE9073FF558AE01340CF10105D0
:102868000123072C2D952C94376073607FF77AAE7F
:102878000D9849462BAA03F0D9F900287FF4CEA970
:102888002D9D2C9C38AE6EE60D9849462BAA03F078
:10289800CDF900287FF4C2A92D9D2C9C38AE40E6C6
:1028A8000D9849462BAA03F0C1F900287FF4B6A970
:1028B8002D9D2C9C38AE40E601343D44072C2D95C7
:1028C8002C94C6F800A077607FF74CAED0E70D983F
:1028D80049462BAA03F0AAF900287FF49FA9DDF83E
:1028E800B4C038AEFFF769BA4FF02D0A644265EB01
:1028F80045058DF88FA00123FFF7B2B903F0DEF884
:10290800002800F01B810B9D28F0200A013500F0FB
:102918006C82BAF1470F04D10B9D002D08BF012529
:102928000B95DDF824C0DDE916234CF4807C002BE0
:10293800CDF848C0C0F25082DDE91645CDE9204502
:102948004FF0000BB8F1660F00F03482B8F1460F73
:1029580000F08C82BAF1450F0ABF0B9C0B9D651CD9
:10296800022025A926AA29AB8DE821000392049309
:1029780002910D98DDE9202300F006FCB8F1670FFD
:10298800074602D0B8F1470F05D1DDF824C01CF086
:10299800010F00F03B82BAF1460F07EB050400F087
:1029A800A881DDE920010022002303F041FF00286F
:1029B80040F09D81299B9C4206D930215A1C2992BE
:1029C8001970299B9C42F9D8DB1BBAF1470F119368
:1029D80000F07481B8F1650F40F39482B8F1660F86
:1029E80000F00682259C1494119C149DAC4200F3BF
:1029F800D481DDF824C01CF0010F40F0538225EA91
:102A0800E5732C464FF06708BBF1000F40F0648176
:102A1800129D0C930995CDF82CB09DF88FA0FFF767
:102A280048B9099C640640F1A680DDF83CC0002541
:102A3800BCF800400CF1040CCDF83CC0FFF7E7BA35
:102A4800DDF824C01CF0100F40F08D80DDF824C0A4
:102A58001CF0400F00F026810F9C109D2368043461
:102A68000F941D80FFF706B894463A46574692469B
:102A78000133A444072BCDF8B4C02C93C6F800A0AA
:102A880074603FF784AE08368CE60D9849462BAA49
:102A980003F0CCF800287FF4C1A8DDF8B4C038AE44
:102AA80093E42C9A9C4901320CF1010C0120072A6D
:102AB800CDF8B4C02C923160706063DC08361C46D7
:102AC8002CB9119D1DB9099DED077FF5C8A92C9B4F
:102AD800159D189A01333560189D6244072B2D9275
:102AE80075602C9300F3478108366442002C40F34C
:102AF8008680102CDFF830A240F39E8051461025C6
:102B0800BA46DDF834800F4604E00836103C102C35
:102B180040F38F8001331032072B2D922C933760AE
:102B28007560F2DD404649462BAA03F07FF800287D
:102B38007FF474A82D9A2C9B38AEE7E7099C774F51
:102B4800774B4FF0030C24F0800409940B90CDF8D8
:102B580030C01490B8F1470FD8BF1F4664469DF89F
:102B68008FA0FFF7A6B80F9C109D236804340F941C
:102B78001D60FEF77FBF0F9D2C6804350F9500255B
:102B8800FFF745BA0D9849462BAA03F04FF80028DD
:102B98007FF444A8259CDDF8B4C038AE90E7099CC2
:102BA800013344F02004099491F80180FEF799BF9D
:102BB8000D9849462BAA03F039F800287FF42EA86F
:102BC800DDF8B4C038AE16E4CDF82CA0FEF7E0FE70
:102BD8000F950B9D20EAE07C0446CDF830C0149593
:102BE8009DF88FA0FFF765B80D9849462BAA03F00A
:102BF8001DF800287FF412A82D9A2C9B38AEDDF81A
:102C080044C00133119C9444072BCDF8B4C02C93D5
:102C1800376074607FF722A9B3E40D9849462BAA60
:102C280003F004F800287EF4F9AFDDF8B4C038AE3C
:102C380004E5394657468A4601332244072B2D922C
:102C48002C93C6F800A07460CEDC0836D7E70D9840
:102C580049462BAA02F0EAFF00287EF4DFAF259C44
:102C6800DDF8B4C038AEA6E50B9CBA46062C28BFE2
:102C7800062424EAE47C0B9714970F95CDF830C00E
:102C8800284FFFF716B80D9849462BAA02F0CEFF39
:102C980000287EF4C3AF259C1199DDF8B4C00C1B45
:102CA80038AE9DE5DDF83CC0109CDCF800300CF136
:102CB800040CCDF83CC01C60FEF7DCBE259BDC1C78
:102CC80034DB0B9C9C4231DB14938DE64FF02D0ACC
:102CD8008DF88FA0FFF7CBBA129D4FF02D0A0995FA
:102CE80000250C938DF88FA00B95FEF7E5BF2346C2
:102CF8006AE63B78302B00F0C080259D2C4450E6D6
:102D080024EAE47CCDF830C00B9C0F950B9014900E
:102D18009DF88FA0FEF7CDBF706F00083C6F0008CC
:102D2800386F0008686F0008206F0008A8F10208D3
:102D3800591E00292591BABF49422D232B23092961
:102D48008DF89C808DF89D3062DC302330318DF811
:102D58009E308DF89F1028AB119D27AA119C9A1AB6
:102D6800012D1992144440F3A4800134002524EA6B
:102D7800E473149548E60D9849462BAA02F056FFCD
:102D880000287EF44BAF259C2D9A2C9B38AEACE6E0
:102D9800002403460B94FEF7A5BE149C119D002C3D
:102DA800D4BFC4F1020401242C4424EAE4734FF094
:102DB800670829E60B9C032025A926AA29AB0194BC
:102DC80000900392049302910D98DDE9202300F00E
:102DD800DBF90B9D0746DEE51799169801F10041CE
:102DE800209021914FF02D0BACE506240B9498E52B
:102DF800259D0B9C002D149578DD002C4BD1099D49
:102E0800E80748D4149C24EAE473FDE5299BDBE534
:102E18000DF1AA023E4DCB1785FB0150C3EBA00074
:102E280000EB8003A1EB43010928134601F13002AE
:102E38001A70014603F1FF32ECDC00F130010DF1AC
:102E4800AB04C9B2944203F8011C5DD90DF19D0091
:102E58001A4601E012F8011BA24200F8011FF9D13D
:102E68000DF5907CC3EB4C03F63B75E70B9D0320F7
:102E780025A926AA29AB0195A2E7DDE920010022B0
:102E8800002303F0D5FC00287FF437AFC5F1010516
:102E980025952C4485E50B9D6C1C149D2C4424EA37
:102EA800E473B1E5149D4FF067086C1C24EAE473E1
:102EB800AAE5DDF824C01CF001037FF456AF149393
:102EC80024EAE473A0E50F9DDDF83CC02D680CF101
:102ED8000401002D93F801800B950F910346BEF66F
:102EE80000AE4FF0FF340B94FEF7FBBD2CB9099DE3
:102EF800E90702D401231C4686E50B9DAC1C24EA95
:102F0800E47381E5259B13E70DF19E0324E700BFD9
:102F1800676666662DE9F0474F6EADF58D6D88469C
:102F28001997D8F81C70B1F80CA0B1F80E90079753
:102F3800D8F824701AAC4FF480652AF0020A0026EB
:102F480069460094049402950595ADF80CA0ADF877
:102F58000E90099706960546FEF74AFD041E07DB04
:102F68002846694601F0D0F8B04218BF4FF0FF3448
:102F7800BDF80C305B0605D5B8F80C3043F04003BB
:102F8800A8F80C3020460DF58D6DBDE8F08700BF20
:102F98002F4B70B5064618680C4610B1826B002A94
:102FA80036D0A589ABB219070CD52269AAB113F09E
:102FB80001011ED0636900215B42A361A160F2B1E7
:102FC800002070BDDA063AD55B0724D4226945F0A3
:102FD8000803A3819BB2002AE9D103F42071B1F55B
:102FE800007FE4D03046214601F0FEFBA389226928
:102FF800DDE7980758BF6169A160002AE0D1A3897D
:103008001A06DDD543F04003A3814FF0FF3070BDB1
:1030180001F096F8C5E7216B49B104F140039942E4
:1030280003D0304601F058F9A589002323632269AB
:1030380025F024050021ADB222606160C7E745F0A4
:103048004005092333604FF0FF30A58170BD00BFF4
:10305800500400202DE9F04F03690D6983B09D42AB
:10306800834600F38C80013D01F1140400F1140A39
:1030780054F825205AF825300132B3FBF2F8AA009B
:10308800914600925244A1440192B8F1000F3ED0FB
:1030980000263046224653468C4652F8047B19686F
:1030A8001FFA87FE3F0C0EFB086E07FB08F606EBBF
:1030B8001E461FFA8EFECEEB000E8FB2B0B27744DA
:1030C800C0EB114000EB2740BFB247EA00479145EB
:1030D80043F8047B4FEA20404FEA1646DDD2009AB7
:1030E80061465AF8023093B9019A131F9A450CD2D7
:1030F80052F8043C4BB9A2F1080302E01A68043BF9
:103108001AB99A4505F1FF35F8D3CBF8105058464F
:1031180002F006FA00282EDB08F1010853460022C7
:1031280054F8046B1868B1B2511A87B2360C394496
:10313800C6EB104000EB214289B241EA0241A145A9
:1031480043F8041B4FEA2242EAD25AF825200AEB38
:10315800850382B91A1F92450BD253F8042C42B941
:10316800083B02E01A68043B1AB99A4505F1FF3595
:10317800F8D3CBF81050404603B0BDE8F08F0020DC
:1031880003B0BDE8F08F00BF2DE9F04F016C9BB094
:10319800044692469B46279D41B1436C01229A40C2
:1031A8004B608A6001F0C6FF00232364BBF1000F67
:1031B800D94633DB00232B60A54B1A4609EA0303E3
:1031C800934214D0504659460022002303F030FBA6
:1031D800804648B3269E289D01233360002D00F0C9
:1031E800CA809C48286001381BB0BDE8F08F269D36
:1031F80042F20F732B60BAF1000F00F0A5809648D9
:10320800289E002EF0D0C378002B00F0B68000F185
:103218000803289D2B601BB0BDE8F08F01232BF01D
:1032280000492B60CB46C7E719AA18AB8DE80C00FC
:10323800204652465B4602F003FA5FEA19550A90A7
:1032480040F08B80189F199D6FF482633D449D4226
:10325800C0F295821F3305F212425B1B09FA03F391
:103268002AFA02F243EA020003F004F80126013DBB
:10327800B846A1F1F87116960022784B02F0BCFE10
:103288006DA3D3E9002303F06BF86DA3D3E9002302
:1032980002F0B4FE064628460F4602F0FBFF6AA37A
:1032A800D3E9002303F05CF802460B463046394662
:1032B80002F0A4FE06460F4603F0ECFA39460790E2
:1032C80000223046002303F0BDFA002840F029828E
:1032D800079E162E00F222826149524601EBC60172
:1032E8005B46D1E9000103F0CBFA002800F04C82DC
:1032F800013E079600260E96C5EB0805013D06958A
:1033080000F1268200250895079E002EC0F217823C
:10331800069D0D963544002606950C96249D092D8C
:103328002DD8052DC4BF043D2495249EC8BF002573
:10333800A6F10203D8BF0125032B22D8DFE813F03A
:10334800B7039E02C0039A04464A434BC9F31300CD
:1033580000280CBF1046184652E7CBF3130343F07E
:103368007F51CDF858805046A5F2FF3541F4401101
:10337800DDF8608080E73C4836E7C31C49E7002554
:103388002495002565642946204601F0ADFE4FF0DE
:10339800FF390126099025952064CDF83C900B96BD
:1033A800199B002BC0F2D280079E0E2E00F3CE8010
:1033B8002B4B03EBC603D3E90001CDE904012599A2
:1033C8000029C0F28083DDE904235946504603F002
:1033D800F1F803F05FFA054602F05CFFDDE904232B
:1033E80002F0BEFF02460B465046594602F004FE64
:1033F800099A05F13003B9F1010F06460F4613701B
:1034080002F1010B64D00022184B02F0A9FF002240
:10341800002306460F4603F00BFA002840F081808F
:10342800DDF82480099DC844DDE904AB05F10209F3
:10343800039428E0AFF3008061436F63A787D23F0E
:10344800B3C8608B288AC63FFB799F501344D33F8B
:103458000000F07F716F0008906F00080000F83FCF
:10346800A06F0008846F0008706F000800002440F7
:1034780002F076FF0022002306460F4603F0D8F933
:10348800002840F0C18352465B463046394603F077
:1034980091F803F0FFF9054602F0FCFE52465B4640
:1034A80002F05EFF02460B463046394602F0A4FDA4
:1034B80005F1300EC14509F801EC4C4606460F46A9
:1034C8004FF00002A74B09F10109D1D1A346039C93
:1034D80032463B463046394602F090FD06460F46D6
:1034E8003246DDE904013B4603F0ACF940B9DDE9B9
:1034F800040132463B4603F09BF990B1EB0710D527
:103508001BF8015C099A05E09A4200F0298413F837
:10351800015C9B46392D0BF1FF33F5D06A1CD2B202
:103528001A7020460A9901F005FE079E269D731C15
:10353800289E00228BF800202B60002E00F02583A7
:103548000998C6F800B01BB0BDE8F08F0B9D002DA0
:1035580000F00381249E012E40F3DC820C9E09F1C9
:10356800FF37BE42C0F28983F71BB9F1000FC0F2E2
:103578008784089D4B46089E20461E440896069E52
:1035880001211E44069601F077FE064665B10698AD
:10359800002809DD03460899AB42A8BF2B46C91A83
:1035A800C01A0891ED1A06900C9A002A1DDD0B9B93
:1035B800002B00F05883002F11DD31463A46204693
:1035C80001F002FF064631460A9A204601F05EFEE7
:1035D8000A998046204601F0ADFDCDF82880DDF837
:1035E80030E0BEEB070240F08F822046012101F057
:1035F80043FE80460D98002805DD414620460D9A79
:1036080001F0E2FE80462499012940F3C182002797
:103618000D98002840F0AF820120069B034413F068
:103628001F0300F0A180C3F12002042A40F3B784ED
:103638000899069AC3F11C0319441A4408911D44B9
:1036480006920899002905DD0A99089A204601F092
:1036580009FF0A90069A002A04DD4146204601F037
:1036680001FF80460E9B002B40F06A82B9F1000FE3
:1036780040F3A6820B98002840F088800B9D0A9F93
:10368800DDF824B006E0394620460A22002301F07E
:103698005BFD074638464146FFF7DCFC30300BF847
:1036A80005000135A945EEDCDDF824B082460A970D
:1036B800B9F1010FACBFCB440BF1010B00250A99FE
:1036C8000122204601F0CEFE41460A9001F028FF73
:1036D800002840F309831BF8012C099905E0994259
:1036E80000F08B8213F8012C9B46392A0BF1FF332B
:1036F800F5D001321A704146204601F01BFD002E1C
:103708003FF40FAF2DB1B54203D02946204601F052
:1037180011FD3146204601F00DFD02E701260E9607
:10372800EAE5079802F0B6FD32463B4603F080F81A
:1037380000287FF4CDAD079E013E0796C8E5079E99
:10374800089DAD1B0895754200260C950D96E5E57C
:103758006D42002608950696D6E50C9F089D0B9E9F
:1037680014E700BF000024401C23DDF820E0069881
:103778009E441844CDF820E01D44069061E7A74810
:10378800401B0AFA00F06FE50E90B5E5002D05DD47
:1037980031462A46204601F065FE0646002F40F0D5
:1037A800E9823746099D09984D4408950AF00105B4
:1037B8000B95DDF82890451C0AE001F0C5FC394658
:1037C80006460A222046002301F0BEFC07460135C2
:1037D80041464846FFF73EFC31468346484601F0DD
:1037E8009FFE414603903A46204601F0BDFEC2685E
:1037F800691E03460BF1300A0691002A40F09381B6
:1038080019464846029301F08BFE029B0246194670
:103818002046029201F08EFC029A2AB9249B1BB919
:103828000B98002800F09383039B002BC0F234828E
:1038380005D1249818B90B99002900F02D82002A87
:1038480000F3AC82DDF820E005F801AC7545AB4625
:1038580000F0B48249460A220023204601F074FC95
:10386800BE428146314620464FF00A024FF000031F
:10387800A3D101F069FC06460746A8E700260B9687
:10388800079EDDF894E0B6440EF10109B9F1000F86
:10389800CDF83CE04E4640F350810021172E61647C
:1038A8000AD9012204235B0003F11400B042114637
:1038B80002F10102F7D96164204601F015FC0E2ED1
:1038C800099020643FF66CAD002D3FF469AD079D6B
:1038D800CDE912AB002D40F31C82514B05F00F02CD
:1038E80003EBC2032D11D3E90067EB0640F1CD814C
:1038F8004C4B50465946D3E9082302F05BFECDE90C
:10390800100105F00F054FF003088DB1DFF814A181
:1039180030463946EE0705D5DAE9002308F10108F3
:1039280002F01EFD6D100AF1080AF3D106460F4693
:10393800DDE9100132463B4602F03CFE82468B46EA
:103948000E9D45B1504659460022374B02F07AFF8A
:10395800002840F0AA82404602F09CFC52465B4692
:1039680002F0FEFC0022314B02F048FB0646A1F1B2
:103978005077B9F1000F00F05A81079DC846179596
:103988000B9D002D00F02382254B002003EBC8037C
:1039980053E90223264902F00DFE32463B4602F067
:1039A8002BFBCDE910015946504602F073FF05463E
:1039B80002F070FC02460B465046594602F01CFBCA
:1039C8003035099ECDE90401DDE90423DDE9100164
:1039D800EDB2357006F1010B02F052FF002840F0FD
:1039E800AB82DDE9042300200F4902F005FB024603
:1039F8000B46DDE9100102F043FF002840F0A282E7
:103A0800B8F1010F40F38181B044CDF85090A2463F
:103A1800C146DDE90467DDE9104519E0EEFBFFFF6B
:103A2800A06F0008687000080000F03F00001C400C
:103A38000000E03F0020A84902F0DEFA22462B46AB
:103A480002F000FF002840F07B82CB4500F05A814D
:103A5800204629460022A14B02F082FC00229F4BFF
:103A680004460D463046394602F07AFC0F460646B3
:103A780002F010FF804602F00DFC02460B4630466D
:103A8800394602F0B9FA08F130085FFA88F8224698
:103A98002B460BF8018B06460F4602F0D3FE324642
:103AA8003B460028C6D0179E5446079639E500269F
:103AB8000B96259800283CDD06460F908146ECE6DB
:103AC80001260B96F5E7B9F1000F3FF77CAC40F003
:103AD800C680DDE904010022814B02F041FC524618
:103AE8005B4602F0C3FEC8464E4600287CD0259DA2
:103AF800DDF824B0ED4307954146204601F01AFB56
:103B0800002E7FF406AE0CE50A99204601F05CFC15
:103B18000A906AE5169D002D00F0B88103F2334340
:103B28000C9F089D27E50146204601F003FB012272
:103B38007AE6012625960F96B14600216164BBE618
:103B48000A98414601F0ECFC0028BFF68FADDDF87D
:103B58001CE00A990EF1FF3E20460A220023CDF808
:103B68001CE001F0F1FA0A900B98002840F0098255
:103B7800DDF83C907AE5D8F8103008EB8303186933
:103B880001F02CFBC0F1200047E50998FFF72CBB9A
:103B9800BAF1000F7FF43BADCBF31303002B40F0D9
:103BA8007C812BF000473F0D3F05002F3FF430ADDF
:103BB800089A069B0132013308920693012727E5EC
:103BC800249902297FF756ADB9F1000F8FD14146EC
:103BD8004B460522204601F0B7FA804641460A982E
:103BE80001F09EFC002882DD079D312301350795F1
:103BF800099D2B7005F1010B7EE707980999312380
:103C0800013007900B7076E5A346039C89E4404693
:103C180002F040FB02460B465046594602F0A0FB14
:103C28000022304B02F0EAF90646A1F150775046DF
:103C3800594600222A4B02F0DFF932463B468246BB
:103C48008B4602F01DFE002840F0BD80324607F189
:103C580000435046594602F0F5FD002855D04FF074
:103C68000008464643E70A990C9A204601F0ACFB47
:103C78000A90BAE401260B9602E60C9D0D9E7B1B6A
:103C88001E440C970D9600276FE4DDE912014FF0F2
:103C98000208CDE9100138E6002ACDF82890D94667
:103CA80011DD0A990122204601F0DCFB41460A9009
:103CB80001F036FC002840F35D81BAF1390F00F0BD
:103CC8001B8109F1310A069B354683F800A003F1F0
:103CD800010B3E460FE500BF0000F03F0000244006
:103CE8000000144000001C4003D11AF0010F7FF4BB
:103CF800F2AC5B4613F8012C9B46302A03F1FF33E4
:103D0800F8D0F8E4DDF850905446DDE912ABFFF73F
:103D180047BB079E7542002D00F0C280A34B05F0FB
:103D28000F0203EBC203D3E90023DDE9120102F01D
:103D380017FB2D1182468B4600F02E819C4E4FF0CA
:103D48000208EA0705D5D6E9002308F1010802F0C0
:103D580007FB6D1006F10806F3D182468B46EFE5A6
:103D6800079E099D30222A700136312207961A7063
:103D7800FFF7D7BB7168204601F0B6F933690546ED
:103D88009A1C920006F10C010C3001F083F82046D1
:103D98002946012201F066FB074603E5BAF1390F0F
:103DA800CDF8289000F0A880069D0AF101032B7039
:103DB8003546069E06F1010B3E469CE43546CDF895
:103DC80028903E467BE44FF0000846460CE77749CA
:103DD80008F1FF3501EBC50132463B46D1E9000148
:103DE800109502F0BDFACDE914015946504602F08B
:103DF80051FD054602F04EFA02460B46504659461A
:103E080002F0FAF8DDF824E03035B8F1010F064683
:103E18000F468EF800500EF1010B1ED0099D6B1E47
:103E280003EB080A0022634B02F09AFA0F46064693
:103E380002F030FD804602F02DFA08F13008024603
:103E48000B463046394602F0D7F805F8018F55453C
:103E5800E8D1109D06460F46AB440022564BDDE9DB
:103E6800140102F0CBF832463B4602F0EBFC002886
:103E78004DD0179E099A07961BF8015CFFF74ABBBD
:103E8800089E0023C9EB0605FFF775BB189B0C9F1E
:103E9800C3F13603089DFFF76EBB5746FFF7B8BB63
:103EA800DDE912AB4FF002084AE5B9F1000F3FF423
:103EB800AEAE0F9E002E7FF728AF00223D4B504636
:103EC800594602F04DFA824608F101008B4602F08D
:103ED800E1F902460B465046594602F041FA0022E3
:103EE800364B02F08BF8079D0646013DA1F150774D
:103EF8001795DDF83C8043E53546069B069E39223A
:103F0800327003F1010B3E460999FFF7EEBBDDE97C
:103F180014230020284902F06FF832463B4602F08D
:103F2800AFFC00283FF4F1AE5B4613F8012C9B462A
:103F3800302A03F1FF33F8D0179D0795FFF7F1BA40
:103F480045465446179E099A0796FFF7E3BABAF111
:103F5800390FCDF82890CFD0039B3546002B069E0D
:103F6800C8BF0BF1310A86F800A006F1010B3E46E6
:103F7800FFF7C1BB7FF4A7AE1AF0010F3FF4A3AE61
:103F88009BE6314620460A220023DDF83C9001F0EA
:103F9800DBF80646FFF76ABB4FF00208D0E43FF4AF
:103FA80050ABC3F13C03FFF7E0BB00BFA06F0008B4
:103FB80068700008000024400000E03F00001C403A
:103FC8008B892DE9F0419AB20D46110780463CD401
:103FD8006A6843F40063002AAB8159DDAC6A002C9F
:103FE8004BD09BB203F48052002192B2D8F8006003
:103FF800C8F80010002A4FD02A6D5F0705D56968F8
:104008002B6B521A0BB1EB6BD21A4046E9690023AD
:10401800A047441C4AD0AB892A6923F400639BB2A9
:1040280000212A60DA04AB8169604CD4296BC8F896
:10403800006011B305F14003994202D0404600F0F8
:104048004BF900202863BDE8F0812E69AEB19107D5
:104058002C680CBF6B6900232E60A41BAB600AE0C0
:10406800324623466F6A4046E969B8470028C0EBE4
:104078000404064404DD002CF2DC0020BDE8F081D5
:10408800AB894FF0FF3043F04003AB81BDE8F081CE
:10409800EA6B002AA2DCF0E701234046E969A04761
:1040A800431C02461ED0AB89AC6AA6E7D8F800309C
:1040B8005BB9AA89296922F4006292B26B60D304C1
:1040C800AA812960B2D52865B0E71D2B01D0162B2F
:1040D80013D1A9892B6921F400610022A9812B60E1
:1040E8006A60A3E7D8F80030002BDCD01D2B01D084
:1040F800162BC5D1C8F80060BFE7AB8943F0400371
:10410800AB81BDE8F08100BF10B5044682B008B1AC
:10411800836B53B1B1F90C0008B902B010BD204649
:1041280002B0BDE81040FFF74BBF019100F008F85E
:104138000199EFE7014900F025BB00BF795D000850
:104148002DE9F04F846B83B00746002C65D17D685C
:1041580033480423032107F53B72F863C7F8E412D8
:10416800C7F8E822C7F8E04205F15C00AB812C6093
:104178006C60AC606C66EC812C616C61AC61214652
:10418800082200F063FFDFF89CB0BE68DFF898A053
:10419800DFF89890DFF8988001230922ED61C5F8CF
:1041A80020B0C5F824A0C5F82890C5F82C80214671
:1041B800F381B28134607460B46074663461746190
:1041C800B461082206F15C00019300F03FFFFD682E
:1041D80012200222F661C6F820B0C6F824A0C6F85C
:1041E8002890C6F82C802146A881EA812C606C6052
:1041F800AC606C662C616C61AC6105F15C000822F6
:1042080000F024FF019BED61C5F820B0C5F824A09B
:10421800C5F82890C5F82C80BB6303B0BDE8F08FC3
:104228003D410008395B00085D5B0008955B0008AC
:10423800B55B0008704700BF704700BFF8B5234D55
:104248000F46044600F04CFFAB685E6826F0030694
:10425800F11B01F6EF7121F47F6121F00F01A1F547
:104268008057B7F5805F07DB2046002101F04EFC40
:10427800AB683344984204D0204600F033FF002056
:10428800F8BD2046794201F041FC01300DD0104BB9
:10429800AA681968F61B46F001062046C91B566035
:1042A800196000F01FFF0120F8BD2046002101F031
:1042B8002DFCAB68C21A0F2ADEDD064D04492D68B5
:1042C80042F00102401B5A600860D5E7B0040020A4
:1042D800D4080020BC0800202DE9F0410D46064610
:1042E800002955D000F0FCFE55F8041CDFF870C119
:1042F800A5F1080421F00103E218DCF8080057686A
:10430800904227F0030768D011F00101576032D0BE
:104318000021D0194068C00706D43B4490680029A2
:104328004DD0D268C260906043F001026260E350F1
:10433800E1B9B3F5007F2DD35A0A042A69D8980940
:10434800383041000CEB810CDCF808204449624508
:1043580065D0516821F003018B4202D292689445DE
:10436800F7D1D368E360A2609C60D4603046BDE8B2
:10437800F04100F0B7BE55F8085C0CF10808641B62
:10438800A0682B44404542D0E568C560A860C0E7F6
:10439800BDE8F081DB089A1001209040DCF8041099
:1043A8000CEBC3039A680143A260E360CCF80410E5
:1043B80030469C60D460BDE8F04100F093BE294DC2
:1043C800A842AED143F00102CCF81440CCF810401A
:1043D800E060A0606260E350C8E71F44CB0707D4E1
:1043E80055F8081C641AE368A2680F44D3609A6001
:1043F8001D4B47F001021B6862609F42CCF80840E1
:10440800B4D31A4B30461968FFF718FFAEE70121FD
:104418007FE7142A0BD802F15B00410092E7801075
:104428000125854048681346284348609AE7542A7E
:1044380003D8180B6E30410084E7B2F5AA7F03D881
:10444800D80B773041007DE740F254518A4203D8B7
:10445800980C7C30410075E7FC217E2072E700BF94
:10446800B0040020B8040020B8080020D0080020BC
:104478002DE9F04F936883B0164681460C462BB35E
:104488008B89190726D5226922B303F0020292B25A
:104498003568002A2CD04FF0000ADFF8E4B2D04685
:1044A800D84534BF43465B4652464846B8F1000FEC
:1044B8004FD0E169676AB847002856DDB36882447F
:1044C8001B1AC0EB0808B360002BE9D1002003B029
:1044D800BDE8F08F48462146FEF75AFD002840F017
:1044E8004681A389356803F0020292B2002AD2D12C
:1044F80013F0010A42D1D046B8F1000F23D09A0533
:10450800A76876D5B845C0F0A48013F4906F40F042
:10451800B2802068BB4651465A4600F031FDA26879
:104528002168D21B01EB0B03A26023604246B368EB
:1045380092449B1AC2EB0808B360002BC6D0A3892B
:10454800B8F1000FDBD1D5F800A0D5F80480083504
:10455800D2E7D5F800A0D5F804800835A0E748468A
:104568002146FFF7D1FD002859D0A38943F0400325
:104578004FF0FF30A38103B0BDE8F08F924601925F
:1045880093469046B8F1000F2BD0019F002F64D0BE
:1045980020682169C24534BF5346434688421F46B6
:1045A800D4F808C0626903D99444634500F3AE8027
:1045B800934236DB1346676A4846E1695A46B8476C
:1045C800071ED2DDBAEB070A3AD0B368BB44DB1B3F
:1045D800C7EB0808B360002B3FF478AFB8F1000FC1
:1045E800D3D10027D5F800B0D5F804800197083555
:1045F800C8E720682369984202D86369984572D24F
:10460800B84538BF47463A46514600F0B9FCA3685A
:104618002268DB1B3A44A3602260002B9FD03A46F5
:1046280085E71A465946009300F0AAFC009BA1684A
:104638002268C91ABAEB070A1344A1602360C4D1DF
:1046480048462146FFF760FD00288ED1CDF804A02A
:10465800BBE720684746C3465DE758460A214246FD
:1046680000F0CEFB00287DD000F1010A0127CBEB3A
:104678000A0A01978CE7226821696769C1EB020C75
:1046880007EB47070CF1010207EBD77742447F108D
:10469800974234BF17463A465B054DD51146484602
:1046A800CDF800C000F010F9DDF800C083460028FE
:1046B80060D062462169CDF800C000F0EBFBA2890A
:1046C800DDF800C022F4906242F08002A2810BEB78
:1046D8000C00CCEB0702C4F810B067612060A26040
:1046E8004746C34617E76FF00042904538BF424639
:1046F80092FBF3F202FB03F3676A4846E16952460C
:10470800B84700287FF731AF024610E7624659469E
:10471800CDF800C000F034FCDDF800C0236848463E
:10472800634423602146FFF7EFFCDDF800C0002852
:104738007FF41BAF674645E74846CDF800C000F058
:10474800DDFFDDF800C083460028C0D14846216956
:10475800FFF7C2FDA3890C2223F080039BB2C9F89E
:10476800002003E7012708F1010A019710E74FF03D
:10477800FF30ACE60C23C9F80030A389F6E600BF89
:1047880000FCFF7F2DE9F04110F53877884619D0F5
:1047980000267D68BC68013D0ED4A389013D012B2C
:1047A80006D9B4F90E302046013301D0C04706437C
:1047B8006B1C04F16804F0D13F68002FE9D1304642
:1047C800BDE8F0813E463046BDE8F08100487047BC
:1047D8008C040020014B1868704700BFAC0400200F
:1047E8000048704754040020F0B58B8991B09AB204
:1047F80096070C46054637D4B1F90E10002917DB89
:1048080001AA01F01DFB002810DB029B03F4704392
:10481800B3F500514F424F41B3F5004F2CD0A38957
:104828004FF4806643F40063A3810BE0A3899AB236
:1048380012F0800F43F40063A38114BF40264FF4A5
:10484800806600272846314600F03EF8A3890028F4
:1048580029D01B4A43F08003EA63A38120602061CA
:104868006661A7B911B0F0BD01F1430301220B60E5
:104878000B614A6111B0F0BD124AA36A9342CED1CE
:10488800A3894FF480663343A381E664DAE72846B8
:10489800B4F90E1001F0E8FA0028E3D0A38943F038
:1048A8000103A381DEE79A05DCD404F1430243F057
:1048B80002030121A381226022616161D2E700BF66
:1048C8003D410008955B00082DE9F04F01F10B050B
:1048D800162D83B0064627D935F0070527D4A942F7
:1048E80025D8304600F0FCFBB5F5FC7F26D2C14F39
:1048F8004FEAD50C07EBCC03DC689C4200F0D28170
:104908006368E26823F0030323445868A16840F011
:104918000105CA60304691605D6000F0E3FB083431
:10492800204603B0BDE8F08F1025A942D9D900244C
:104938000C232046336003B0BDE8F08F5FEA552CA6
:1049480000F08980BCF1040F00F260814FEA951CE9
:104958000CF1380C4FEA4C01A64F07EB8101CC68EB
:10496800A14205D10CE0002B79DAE468A14207D016
:10497800626822F00302531B0F2BF4DD0CF1FF3C9D
:104988000CF1010C9B4B3C6903F1080E744500F0D7
:104998007E81616821F003014A1B0F2A00F36481BC
:1049A800002AC3F814E0C3F810E069DAB1F5007F13
:1049B80080F03A81C9088A104FF0010808FA02F815
:1049C80003EBC1015A68886848EA0202A060E16006
:1049D8005A608C60C4604FEAAC0301209840904252
:1049E8005BD8024206D12CF0030C400002420CF1C5
:1049F800040CFAD007EBCC084446E146E3689C4235
:104A080007D146E1002A80F25781DB689C4200F01A
:104A18004081596821F003014A1B0F2AF2DD1C4628
:104A280054F808CFD96845F0010942F001081D443F
:104A3800C3F804903046CCF80C10C1F808C07D616A
:104A48003D61C5F80CE0C5F808E0C5F80480AA5037
:104A580000F048FB64E77E214FF03F0C7CE72244DE
:104A68005068E368A16840F00105CB603046996062
:104A7800556000F037FB0834204603B0BDE8F08FDE
:104A880021444B68304643F001034B6000F02AFB99
:104A98000834204603B0BDE8F08FBC68636823F093
:104AA8000309A94504D3C5EB09030F2B00F3918033
:104AB800514B524A1968136805EB010A013304EB9C
:104AC800090B00F061810AF5805A0AF10F0A2AF4ED
:104AD8007F6A2AF00F0A30465146019201F016F813
:104AE800B0F1FF3F8046019A00F00181834500F252
:104AF800FB80DFF814C1C345DCF800305344CCF820
:104B0800003000F04A8112683C4901321BBFCBEBF0
:104B1800080B5B44C1F80080CCF8003018F007039C
:104B280000F01481C3F10802C3F5805390440833A0
:104B3800C244CAF30B0ACAEB030A51463046CDF801
:104B480004C000F0E3FF431CDDF804C000F0358129
:104B5800C8EB0002524442F00102DCF80030BC42CB
:104B68005344C7F80880CCF80030C8F80420DFF8B0
:104B780098A015D0B9F10F0F40F2EB806168A9F148
:104B88000C0222F0070201F0010142EA010E0520A1
:104B9800A1180F2AC4F804E04860886000F2118167
:104BA800174ABC6811688B4288BF1360154A1168A0
:104BB8008B4288BF1360626822F003029542C5EBFE
:104BC800020301D80F2B04DC304600F08BFA0024D6
:104BD800A6E645F0010243F0010325446260304631
:104BE800BD606B6000F07EFA0834204603B0BDE873
:104BF800F08F00BFB0040020D0080020BC080020BF
:104C0800CC080020C8080020D4080020BCF1140FEC
:104C180061D9BCF1540F00F28F804FEA153C0CF1BA
:104C28006E0C4FEA4C0197E64B0A042B58D9142B0B
:104C380000F2AD8003F15B02500007EB800083684F
:104C4800DFF8B881834200F08A805A6822F00302B4
:104C5800914202D29B689842F7D1D9687A68E1609C
:104C6800A3608C60DC60B6E645F0010742F0010104
:104C78002544676030465D611D61C5F80CE0C5F8E4
:104C880008E06960AA50083400F02CFA48E65A682F
:104C9800A1E609F1010919F0030F04F108047FF4F2
:104CA800ADAE2DE004F108036469A34208BF0CF11E
:104CB800020C3FF467AE23E6194448681C4654F8D2
:104CC800082FDB6840F001054D603046D3609A60DC
:104CD80000F008FA24E60CF15B0C4FEA4C013BE6C5
:104CE8008A0938325000A8E7BC423FF402AFBC68DA
:104CF800626822F0030261E7D8F8008098457AD10B
:104D08001CF0030FA8F108030CF1FF3CF4D17B68F9
:104D180023EA00037B60400098423FF6BEAE0028BD
:104D28003FF4BBAE0342CC467FF464AE400003427E
:104D38000CF1040CFAD05DE6BCF5AA7F19D84FEA4D
:104D4800D53C0CF1770C4FEA4C0105E64FF4805343
:104D5800EEE60123C8F80430444600222EE79210FC
:104D680001209040D8F8042019460243C8F80420CE
:104D780075E740F254539C451BD84FEA954C0CF10B
:104D88007C0C4FEA4C01E7E50AF1100AA3E6542B24
:104D98001FD80A0B6E3250004FE7CBF30B010029E6
:104DA8007FF4B1AE0AEB0901BA6841F00101516024
:104DB800F6E6FC214FF07E0CCEE501224FF0000A0A
:104DC800CBE604F108013046FFF786FADAF800303E
:104DD800E6E6B3F5AA7F03D8CA0B773250002CE772
:104DE80040F25452934203D88A0C7C32500024E794
:104DF800FC207E2221E77B688DE700BFB0040020FD
:104E0800830770B4C9B240D0541E2AB303788B42CA
:104E180023D0431C04E0FCB1057814468D421CD015
:104E280013F0030F184604F1FF3203F10103F2D126
:104E3800032C14D8651E54B303788B420DD0421C42
:104E4800002302E004788C4207D0AB42104603F1FD
:104E5800010302F10102F5D1002070BC704741EA5C
:104E68000126034646EA06461A6818467240A2F129
:104E7800013525EA020212F0803F03F10403D9D17B
:104E8800043C032C1846EFD8D4E71446D0E7204654
:104E9800E3E700BF844641EA000313F0030349D166
:104EA800403A23D30B6803604B6843608B68836088
:104EB800CB68C3600B6903614B6943618B6983618C
:104EC800CB69C3610B6A03624B6A43628B6A836274
:104ED800CB6AC3620B6B03634B6B43638B6B83635C
:104EE800CB6BC36340304031403ADBD230320BD316
:104EF8000B6803604B6843608B688360CB68C36052
:104F080010301031103AF3D20C3205D351F8043B6B
:104F180040F8043B043AF9D2043208D0D2071CBF47
:104F280011F8013B00F8013B01D30B880380604670
:104F3800704700BF082A13D38B07B1D010F00303C2
:104F4800AED0C3F10403D21ADB071CBF11F8013B32
:104F580000F8013BA4D331F8023B20F8023B9FE75D
:104F6800043AD9D3013A11F8013B00F8013BF9D2D0
:104F78000B7803704B7843708B788370604670476A
:104F88008842F0B410D98C18A0420DD28518531E4F
:104F980042B121462A4611F8014D013B02F8014D64
:104FA8005C1CF8D1F0BC70470F2A44D940EA0103D1
:104FB8009B0744D1A2F110073F0900EB07161036F2
:104FC8000C4603462568103343F8105C65681034B6
:104FD80043F80C5C54F8085C43F8085C54F8045C2B
:104FE80043F8045CB342EDD17B1C02F00F0C1B01AB
:104FF800BCF1030F1944034423D90E461D466446E9
:1050080056F8047B043C032C45F8047BF8D8ACF133
:10501800040424F00304043402F00302234421446A
:10502800002ABFD01A4411F8014B03F8014B9342F0
:10503800F9D1F0BC70470346002AF3D1B2E7034622
:10504800F0E76246002AEDD1ACE700BFF0B4840770
:1050580043D0541E002A3ED0CDB2034603E0621E60
:10506800002C38D0144603F8015B9A07F7D1032CBB
:105078002AD9CDB245EA05250F2C45EA054515D9AB
:10508800A4F110073F0903F1100606EB07161A46AC
:10509800156055609560D5601032B242F8D104F0C1
:1050A8000F040137032C03EB07130DD91E462246C4
:1050B800043A032A46F8045BFAD8221F22F00302B6
:1050C8000432134404F003042CB1C9B21C4403F89D
:1050D800011BA342FBD1F0BC704714460346C6E748
:1050E800704700BF704700BFC26C70B505460C46DC
:1050F8004AB152F8240080B1016842F82410002215
:105108000261C26070BD2122042100F0AFFDE86495
:1051180002460028EDD1002070BD012101FA04F6F5
:10512800721D2846920000F0A1FD0028F3D04460CB
:105138008660E4E731B1C36C4A6853F8220008601E
:1051480043F82210704700BF2DE9F0430F6983B080
:105158008846814601F1140500242E680134B1B255
:10516800360C02FB013302FB06F699B206EB134339
:1051780001EB0341A74245F8041B4FEA1343ECDC5B
:105188004BB1D8F80820974209DA08EB87020137B3
:105198005361C8F81070404603B0BDE8F083D8F8F2
:1051A8000410484601310193FFF79EFFD8F81020FC
:1051B80008F10C010232044692000C30FFF76AFE37
:1051C800D9F84C20D8F80410019B52F82100C8F8EF
:1051D800000042F82180A046D7E700BF030C1B045B
:1051E800B3B90004102310F07F4F04BF0002083346
:1051F80010F0704F04BF0001043310F0404F04BF9B
:1052080080000233002807DB420003D420207047C7
:105218000023E8E7581C704718467047036813F0E6
:10522800070207D0D90720D49A0720D49B08036027
:105238000220704799B209B91B0C102213F0FF0F16
:1052480004BF1B0A0832190704BF1B090432990757
:1052580004BF9B080232D90704D45B0801D120207F
:1052680070470132036010467047002070475B08A2
:1052780003600120704700BF10B50C460121FFF7FD
:1052880033FF01224461026110BD00BF2DE9F04FD8
:105298000D69D2F8109085B04D450C46924604DA57
:1052A8002A4654464D468A469146A36805EB0907A7
:1052B80061689F42C8BF0131FFF716FF00F114066D
:1052C80006EB87084645019005D23346002043F88F
:1052D800040B9845FBD80AF1140C0CEB890914341B
:1052E800CC45009404EB85055BD2CDF80880039784
:1052F800C8465CF8043B9CB224B3009A33464FF08E
:10530800000900E00B4652F8047B19681FFA87FB76
:105318001FFA81FA380C090C04FB0BAA04FB0010D5
:10532800D14400EB19401FFA89F949EA00471946A8
:1053380095424FEA104941F8047BE3D8C3F804903A
:105348005CF8043C5FEA134924D0D6F800A0009B1F
:10535800504631464FF0000B00E011461A88000C09
:1053680009FB02001FFA8AFA83444AEA0B400A46FC
:1053780042F8040B53F8047B48684FEA174A84B292
:1053880009FB0A4A9D420AEB1B4A4FEA1A4BE4D82A
:10539800C1F804A0E04506F10406AAD8DDF80880A3
:1053A800039F002F0ADD58F8043CA8F104081BB13C
:1053B80004E058F8043D0BB9013FFAD1019B1846A7
:1053C8001F6105B0BDE8F08F12F003032DE9F0412D
:1053D800144607460E462CD1A4101CD0BD6C002DD7
:1053E80030D04FF0000804E0641014D02868A8B149
:1053F8000546E307F8D5384631462A46FFF746FF03
:10540800AEB17268FB6C641053F82210316043F837
:1054180022600646EAD13046BDE8F0813846294682
:105428002A46FFF733FF2860C0F80080E0E7064609
:10543800DAE70B4A013B52F823200023FFF784FEEA
:105448000646C9E701213846FFF74EFE40F27121B2
:1054580001220023416102610546B8640360C0E788
:10546800907000082DE9F84F0B694FEA621A0AEBB1
:1054780003098B6809F101069E420F469346804650
:10548800496804DD5B009E4201F10101FADC4046F7
:10549800FFF72AFEBAF1000F00F1140409DD00231A
:1054A8001A4625460133534545F8042BFAD104EB37
:1054B80083043A6907F114031BF01F0B03EB820CFA
:1054C80021D0CBF1200A002200E02C46196825469D
:1054D80001FA0BF10A4345F8042B53F8042B6345F2
:1054E80022FA0AF2F1D362600AB109F10206D8F889
:1054F8004C307A68013E53F822100661396043F84F
:105508002270BDE8F88F53F8042B9C4544F8042B0F
:10551800EDD953F8042B9C4544F8042BF3D8E6E75F
:1055280002690B6910B4D21A15D19B0014301431DA
:105538001944034401E0984211D253F8042D51F85C
:10554800044DA242F7D0944294BF01204FF0FF309F
:105558005DF8044B704710465DF8044B7047002017
:105568005DF8044B704700BF2DE9F0470D4604462F
:10557800114628461646FFF7D3FF071E56D04FDBC5
:105588004FF0000969682046FFF7AEFD2F693269C0
:1055980014351436C0F80C9000F1140305EB870C91
:1055A80006EB8208002155F8044B56F8042B1FFA25
:1055B80084FA8A441FFA82F9110CC1EB1441C9EB31
:1055C8000A0201EB224192B242EA0142B04543F895
:1055D800042B4FEA21412C46E5D8AC45984615D90D
:1055E80054F8046BB2B21144360C06EB214689B26A
:1055F80041EA0642A44543F8042B4FEA2641EFD876
:10560800EB43634423F0030304334344043B22B9CC
:1056180053F8042D013F002AFAD00761BDE8F0874E
:105628002B464FF0010935461E46ABE72046394662
:10563800FFF75AFD012347610361BDE8F08700BF0A
:105648002DE9F043012183B01D46C3F30A561446E1
:105658000A9FFFF749FDC5F3130380460EB143F4D3
:105668008013019324B302A840F8084D6846FFF759
:10567800D5FD002835D19DE80C00C8F81420002B72
:105688000CBF01240224C8F81830C8F81040DEB94D
:1056980008EB8403A0F2324038601869FFF79EFDDA
:1056A8000B9BC0EB44101860404603B0BDE8F08384
:1056B80001A8FFF7B3FD019B01242030C8F814307E
:1056C800C8F81040002EE3D0A6F2334909EB0003D6
:1056D8003B600B9BC0F135001860404603B0BDE845
:1056E800F083019BC0F1200103FA01F1C340009A45
:1056F80001930A43C8F81420C1E700BF2DE9F04F11
:105708000C4683B090468146002900F0BA80FFF726
:10571800E7FC08F10B0654F8043C162E23F00305A9
:10572800A4F108074BD810210E46B0454CD88D423D
:1057380051DADFF884B37819DBF808E0864500F021
:10574800A680426822F0010C8444DCF804C01CF0F6
:10575800010F54D000221046DB076FD454F8083CE0
:10576800C3EB070ADAF8043023F003032B440028BC
:1057780062D0704500F0E98002EB030E8E455BDBDA
:10578800C3688268D046D3609A6058F8081FDAF870
:105798000C302A1F242ACB60996000F22381132A37
:1057A80040F2B08023681B2ACAF808306368CAF838
:1057B8000C3000F22B8108340AF11003A3E026F024
:1057C8000706002E3146B0DA0C230020C9F8003055
:1057D80003B0BDE8F08FA046AA1B0F2A03F001030F
:1057E8001AD82B437B603D446B6843F001036B6020
:1057F8004846FFF777FC404603B0BDE8F08F22F03B
:10580800030202EB050C8C45A6DBC2688168A04642
:10581800CA6065469160DFE7B919334342F0010079
:105828007B600A4448605368083143F001035360C1
:105838004846FEF751FDDBE78B4233DA41464846DE
:10584800FFF742F880460028D2D054F8043CA0F173
:10585800080123F001023A44914200F0BC802A1F5B
:10586800242A6ED8132A42D80346224611681960A2
:105878005168596092689A6021464846FEF72CFDA7
:10588800B6E7114603B0BDE8F04FFFF71DB8DEF8E4
:10589800042006F1100C22F00302501960453DDA8D
:1058A800704659E7D04658F8080FDAF80C102A1F46
:1058B800242AC160886000F2A080132A40F29B80ED
:1058C80021681B2ACAF808106168CAF80C1000F28F
:1058D800B28008340AF1100221681D46116061681F
:1058E80057465160A3689360DAF8043074E7236878
:1058F8001B2A03606368436062D800F1080304F15F
:105908000802B3E74346226875461A60626857463C
:105918005A60A2689A60DAF804305DE7831B37445E
:1059280043F00103CBF808707B6054F8043C484608
:1059380003F001031E4344F8046CFFF7D3FB204631
:105948005AE72146FFF71CFB96E702EB030C06F12A
:1059580010029445FFF670AF574657F8081FDAF85B
:105968000C302A1F242ACB60996000F28680132A03
:1059780077D923681B2ACAF808306368CAF80C303C
:1059880000F2848008340AF1100322681A60626801
:105998005A60A2689A60C6EB0C020AEB060342F052
:1059A8000102CBF808305A60DAF80430484603F0B0
:1059B80001031E43CAF80460FFF794FB38461BE74F
:1059C800A368242A8360E368C3602BD000F1100326
:1059D80004F110024AE750F8042CA04622F0030212
:1059E8001544F9E62146404675465746FFF7C8FA7A
:1059F800DAF80430F0E642466EE7214640461D4696
:105A08005746FFF7BDFADAF80430E5E6A368242A1A
:105A1800CAF81030E368CAF8143018D010340AF104
:105A2800180370E7226900F118030261616904F143
:105A3800180241611AE7A168242ACAF81010E1681F
:105A4800CAF814100FD010340AF1180244E722697A
:105A58000AF12003CAF8182062691834CAF81C2011
:105A680051E73B4691E721690AF12002CAF818106C
:105A780061691834CAF81C102EE721463846CDF85B
:105A880004C0FFF77DFADDF804C084E7A368242A80
:105A9800CAF81030E368CAF8143003D010340AF199
:105AA800180372E722690AF12003CAF8182062690C
:105AB8001834CAF81C2068E7B004002031F000430D
:105AC80010B408D00F4AA3F5801494420AD80420D1
